{
  "address": "0xE71A446fab72A48a0e519ac1448f98dD9269F145",
  "abi": [
    {
      "inputs": [
        {
          "internalType": "uint32",
          "name": "_levels",
          "type": "uint32"
        },
        {
          "internalType": "address",
          "name": "_hasher",
          "type": "address"
        },
        {
          "internalType": "address",
          "name": "_verifier",
          "type": "address"
        },
        {
          "internalType": "address",
          "name": "_witnet",
          "type": "address"
        },
        {
          "internalType": "address",
          "name": "_tCRO",
          "type": "address"
        }
      ],
      "stateMutability": "nonpayable",
      "type": "constructor"
    },
    {
      "anonymous": false,
      "inputs": [
        {
          "indexed": true,
          "internalType": "address",
          "name": "previousOwner",
          "type": "address"
        },
        {
          "indexed": true,
          "internalType": "address",
          "name": "newOwner",
          "type": "address"
        }
      ],
      "name": "OwnershipTransferred",
      "type": "event"
    },
    {
      "inputs": [],
      "name": "counter",
      "outputs": [
        {
          "internalType": "uint256",
          "name": "",
          "type": "uint256"
        }
      ],
      "stateMutability": "view",
      "type": "function"
    },
    {
      "inputs": [
        {
          "internalType": "bytes32",
          "name": "_nonceHash",
          "type": "bytes32"
        },
        {
          "internalType": "uint256",
          "name": "_denomination",
          "type": "uint256"
        },
        {
          "internalType": "uint256",
          "name": "_waitingBlocks",
          "type": "uint256"
        },
        {
          "internalType": "uint256",
          "name": "_lockingBlocks",
          "type": "uint256"
        }
      ],
      "name": "createLottery",
      "outputs": [
        {
          "internalType": "address",
          "name": "",
          "type": "address"
        }
      ],
      "stateMutability": "nonpayable",
      "type": "function"
    },
    {
      "inputs": [],
      "name": "hasher",
      "outputs": [
        {
          "internalType": "address",
          "name": "",
          "type": "address"
        }
      ],
      "stateMutability": "view",
      "type": "function"
    },
    {
      "inputs": [],
      "name": "levels",
      "outputs": [
        {
          "internalType": "uint32",
          "name": "",
          "type": "uint32"
        }
      ],
      "stateMutability": "view",
      "type": "function"
    },
    {
      "inputs": [
        {
          "internalType": "uint256",
          "name": "id",
          "type": "uint256"
        }
      ],
      "name": "lottery",
      "outputs": [
        {
          "internalType": "address",
          "name": "",
          "type": "address"
        }
      ],
      "stateMutability": "view",
      "type": "function"
    },
    {
      "inputs": [],
      "name": "lotteryCount",
      "outputs": [
        {
          "internalType": "uint256",
          "name": "",
          "type": "uint256"
        }
      ],
      "stateMutability": "view",
      "type": "function"
    },
    {
      "inputs": [],
      "name": "owner",
      "outputs": [
        {
          "internalType": "address",
          "name": "",
          "type": "address"
        }
      ],
      "stateMutability": "view",
      "type": "function"
    },
    {
      "inputs": [],
      "name": "renounceOwnership",
      "outputs": [],
      "stateMutability": "nonpayable",
      "type": "function"
    },
    {
      "inputs": [
        {
          "internalType": "address",
          "name": "_hasher",
          "type": "address"
        }
      ],
      "name": "setHasher",
      "outputs": [],
      "stateMutability": "nonpayable",
      "type": "function"
    },
    {
      "inputs": [
        {
          "internalType": "uint32",
          "name": "_levels",
          "type": "uint32"
        }
      ],
      "name": "setLevels",
      "outputs": [],
      "stateMutability": "nonpayable",
      "type": "function"
    },
    {
      "inputs": [
        {
          "internalType": "address",
          "name": "_tCRO",
          "type": "address"
        }
      ],
      "name": "setTCRO",
      "outputs": [],
      "stateMutability": "nonpayable",
      "type": "function"
    },
    {
      "inputs": [
        {
          "internalType": "address",
          "name": "_verifier",
          "type": "address"
        }
      ],
      "name": "setVerifier",
      "outputs": [],
      "stateMutability": "nonpayable",
      "type": "function"
    },
    {
      "inputs": [
        {
          "internalType": "address",
          "name": "_witnet",
          "type": "address"
        }
      ],
      "name": "setWitnet",
      "outputs": [],
      "stateMutability": "nonpayable",
      "type": "function"
    },
    {
      "inputs": [],
      "name": "tCRO",
      "outputs": [
        {
          "internalType": "address",
          "name": "",
          "type": "address"
        }
      ],
      "stateMutability": "view",
      "type": "function"
    },
    {
      "inputs": [
        {
          "internalType": "address",
          "name": "newOwner",
          "type": "address"
        }
      ],
      "name": "transferOwnership",
      "outputs": [],
      "stateMutability": "nonpayable",
      "type": "function"
    },
    {
      "inputs": [],
      "name": "verifier",
      "outputs": [
        {
          "internalType": "address",
          "name": "",
          "type": "address"
        }
      ],
      "stateMutability": "view",
      "type": "function"
    },
    {
      "inputs": [],
      "name": "withdraw",
      "outputs": [],
      "stateMutability": "nonpayable",
      "type": "function"
    },
    {
      "inputs": [],
      "name": "witnet",
      "outputs": [
        {
          "internalType": "address",
          "name": "",
          "type": "address"
        }
      ],
      "stateMutability": "view",
      "type": "function"
    },
    {
      "stateMutability": "payable",
      "type": "receive"
    }
  ],
  "transactionHash": "0x379caa32d5ea0ba4dcc8b6a46bbdc5d22f3217a5e9a81d02ed0c6c29573539bb",
  "args": [
    10,
    "0xD8ea063ff0D5b6036f0D68d75636741E9a183A71",
    "0x37dbeb913caeb6a911f85fa1f63f6147cf161326",
    "0xe0B55AFE42E4fEBb79Ed010A934BC5a4f6865C3C",
    "0xA5B72D84f183dbfB3d8B6E24568626b73D4B49a5"
  ],
  "numDeployments": 1,
  "solcInputHash": "4b790b8f91c3d711c3484ee246dd4f98",
  "bytecode": "0x608060405234801561001057600080fd5b50604051613f1e380380613f1e83398101604081905261002f91610114565b610038336100a8565b600280546001600160a01b03958616640100000000026001600160c01b031990911663ffffffff9097169690961795909517909455600380549284166001600160a01b03199384161790556004805491841691831691909117905560058054939092169216919091179055610184565b600080546001600160a01b038381166001600160a01b0319831681178455604051919092169283917f8be0079c531659141344cd1fd0a4f28419497f9722a3daafe3b4186f6b6457e09190a35050565b80516001600160a01b038116811461010f57600080fd5b919050565b600080600080600060a0868803121561012c57600080fd5b855163ffffffff8116811461014057600080fd5b945061014e602087016100f8565b935061015c604087016100f8565b925061016a606087016100f8565b9150610178608087016100f8565b90509295509295909350565b613d8b806101936000396000f3fe608060405260043610620001015760003560e01c80638da5cb5b11620000905780638da5cb5b146200026c5780638de9bd1a146200028c5780639427543e14620002b15780639ac9c7dc14620002d6578063a57d156014620002f8578063c6f6d9d9146200031d578063ed33639f1462000334578063f2fde38b146200035e578063f65551fe146200038357600080fd5b806328c62fbc146200010e5780632b7ac3f314620001505780633ccfd60b146200017257806346d1d21a146200018c5780634afae40214620001ae5780634ecf518b14620001d35780635437988d146200020857806361bc221a146200022d578063715018a6146200025457600080fd5b366200010957005b600080fd5b3480156200011b57600080fd5b50620001336200012d36600462000785565b620003a8565b6040516001600160a01b0390911681526020015b60405180910390f35b3480156200015d57600080fd5b5060035462000133906001600160a01b031681565b3480156200017f57600080fd5b506200018a620004e0565b005b3480156200019957600080fd5b5060045462000133906001600160a01b031681565b348015620001bb57600080fd5b506200018a620001cd366004620007b8565b6200051e565b348015620001e057600080fd5b50600254620001f29063ffffffff1681565b60405163ffffffff909116815260200162000147565b3480156200021557600080fd5b506200018a62000227366004620007b8565b62000556565b3480156200023a57600080fd5b506200024560015481565b60405190815260200162000147565b3480156200026157600080fd5b506200018a62000582565b3480156200027957600080fd5b506000546001600160a01b031662000133565b3480156200029957600080fd5b506200018a620002ab366004620007b8565b6200059a565b348015620002be57600080fd5b506200018a620002d0366004620007ea565b620005c6565b348015620002e357600080fd5b5060055462000133906001600160a01b031681565b3480156200030557600080fd5b50620001336200031736600462000812565b620005ec565b3480156200032a57600080fd5b5060015462000245565b3480156200034157600080fd5b50600254620001339064010000000090046001600160a01b031681565b3480156200036b57600080fd5b506200018a6200037d366004620007b8565b6200061f565b3480156200039057600080fd5b506200018a620003a2366004620007b8565b6200069f565b600154600254600354600454600554604051600095869590948a948a948a948e9463ffffffff8116946001600160a01b039081169464010000000090920481169391811692911690620003fb9062000777565b998a5260208a019890985260408901969096526060880194909452608087019290925263ffffffff1660a08601526001600160a01b0390811660c086015290811660e08501529081166101008401521661012082015261014001604051809103906000f08015801562000472573d6000803e3d6000fd5b50600680546001808201835560009283527ff652222313e28459528d920b65115c16c04f3efc82aaedc97be59f3f377c0d3f90910180546001600160a01b0319166001600160a01b038516179055805492935090620004d1836200082c565b90915550909695505050505050565b600080546040516001600160a01b03909116914780156108fc02929091818181858888f193505050501580156200051b573d6000803e3d6000fd5b50565b62000528620006cb565b600280546001600160a01b0390921664010000000002640100000000600160c01b0319909216919091179055565b62000560620006cb565b600380546001600160a01b0319166001600160a01b0392909216919091179055565b6200058c620006cb565b62000598600062000727565b565b620005a4620006cb565b600480546001600160a01b0319166001600160a01b0392909216919091179055565b620005d0620006cb565b6002805463ffffffff191663ffffffff92909216919091179055565b60006006828154811062000604576200060462000854565b6000918252602090912001546001600160a01b031692915050565b62000629620006cb565b6001600160a01b038116620006945760405162461bcd60e51b815260206004820152602660248201527f4f776e61626c653a206e6577206f776e657220697320746865207a65726f206160448201526564647265737360d01b60648201526084015b60405180910390fd5b6200051b8162000727565b620006a9620006cb565b600580546001600160a01b0319166001600160a01b0392909216919091179055565b6000546001600160a01b03163314620005985760405162461bcd60e51b815260206004820181905260248201527f4f776e61626c653a2063616c6c6572206973206e6f7420746865206f776e657260448201526064016200068b565b600080546001600160a01b038381166001600160a01b0319831681178455604051919092169283917f8be0079c531659141344cd1fd0a4f28419497f9722a3daafe3b4186f6b6457e09190a35050565b6134eb806200086b83390190565b600080600080608085870312156200079c57600080fd5b5050823594602084013594506040840135936060013592509050565b600060208284031215620007cb57600080fd5b81356001600160a01b0381168114620007e357600080fd5b9392505050565b600060208284031215620007fd57600080fd5b813563ffffffff81168114620007e357600080fd5b6000602082840312156200082557600080fd5b5035919050565b6000600182016200084d57634e487b7160e01b600052601160045260246000fd5b5060010190565b634e487b7160e01b600052603260045260246000fdfe6101806040526003805463ffffffff191690553480156200001f57600080fd5b50604051620034eb380380620034eb83398101604081905262000042916200086c565b818a8a8a8a8a8a8a8a828160008060006101000a81548160ff0219169083600381111562000074576200007462000918565b021790555060008263ffffffff1611620000ed5760405162461bcd60e51b815260206004820152602f60248201527f4d65726b6c65547265653a205f6c6576656c732073686f756c6420626520677260448201526e6561746572207468616e207a65726f60881b60648201526084015b60405180910390fd5b600b8263ffffffff1610620001585760405162461bcd60e51b815260206004820152602a60248201527f4d65726b6c65547265653a205f6c6576656c732073686f756c64206265206c656044820152697373207468616e20313160b01b6064820152608401620000e4565b6001600160a01b038116620001bf5760405162461bcd60e51b815260206004820152602660248201527f4d65726b6c65547265653a205f6861736865722073686f756c64206e6f74206260448201526519481b9d5b1b60d21b6064820152608401620000e4565b6000805464ffffffff00191661010063ffffffff8516021790556001600160a01b03811660805262000203620001f760018462000944565b63ffffffff1662000591565b60025560005b8263ffffffff168163ffffffff1610156200025a576200022f63ffffffff821662000591565b63ffffffff82166000908152600160205260409020558062000251816200096c565b91505062000209565b5050506200027762000271620007f160201b60201c565b620007f5565b60008611620002c65760405162461bcd60e51b81526020600482015260256024820152600080516020620034cb833981519152604482015264065203e20360dc1b6064820152608401620000e4565b60008511620003155760405162461bcd60e51b81526020600482015260256024820152600080516020620034cb833981519152604482015264065203e20360dc1b6064820152608401620000e4565b60008711620003735760405162461bcd60e51b8152602060048201526024808201527f4c6f74746572793a205f64656e6f6d696e6174696f6e2073686f756c642062656044820152630203e20360e41b6064820152608401620000e4565b6000849003620003d55760405162461bcd60e51b815260206004820152602660248201527f4c6f74746572793a205f6e6f6e6365486173682073686f756c64206e6f74206260448201526519481b9d5b1b60d21b6064820152608401620000e4565b6001600160a01b0382166200043b5760405162461bcd60e51b815260206004820152602560248201527f4c6f74746572793a205f76657269666965722073686f756c64206e6f74206265604482015264081b9d5b1b60da1b6064820152608401620000e4565b50600380546001600160e01b03166001600160e01b031917905560a0969096525060c0939093524361010052610120919091526101405260e0526001600160a01b03908116610160528116620004e75760405162461bcd60e51b815260206004820152602a60248201527f5769746e6574524e473a20696e76616c6964207769746e657420636f6e7472616044820152696374206164647265737360b01b6064820152608401620000e4565b600980546001600160a01b0319166001600160a01b039283161790558116620005615760405162461bcd60e51b815260206004820152602560248201527f43524f4c6f74746572793a20696e76616c696420746563746f6e696320636f6e6044820152641d1c9858dd60da1b6064820152608401620000e4565b600a80546001600160a01b0319166001600160a01b03929092169190911790555062000992975050505050505050565b600081600003620005c357507f2cf9e9b70ba26273d0d92524f1f242af2b129368526a6b0ab4ae5b3c7dd7065a919050565b81600103620005f357507f1635b2d36ff63121694af49a4d3c3cca8c740fcfe2aa33e7a4f6202e59fd4f44919050565b816002036200062357507f16393d132a31040fe66b041853502aad2deffb6fbaddbdbef588a2954282942b919050565b816003036200065357507f0a3ae4392887fb7944f5cec9d35f2543280c655dd770be15bc22c9dd29194cba919050565b816004036200068357507f24ff60aad4c2e0c6f767bd185a5a654b4d8d4177fc255d945e7f3376bc467700919050565b81600503620006b357507f0759516e53eb36eb2ec242a0822d280b6d809e02af7da37313b41023c0b8a071919050565b81600603620006e357507f07417447bde93ab35150909062b8e02f39df89d070c35cbf1b9c0cf40c11e703919050565b816007036200071357507f1bfd31be5498363e0675ab0b52903cb93d500ad5d2930dc503f846d2e240f711919050565b816008036200074357507f15fb7c999bcc1c8961a584a78e4ff1c97037ae3ffbdfd8c1ef82e92e1d985422919050565b816009036200077357507f28088429e37798c8f5a3f6ef6b26dac6c957974f30df1da1dfe110fd3358ac15919050565b81600a03620007a357507f116fa58935dd461ff4956795241840c9fe15a28a8dfbc59141b666c07060394f919050565b60405162461bcd60e51b815260206004820152601f60248201527f4d65726b6c65547265653a20696e646578206f7574206f6620626f756e6473006044820152606401620000e4565b919050565b3390565b600380546001600160a01b03838116640100000000818102600160201b600160c01b031985161790945560405193909204169182907f8be0079c531659141344cd1fd0a4f28419497f9722a3daafe3b4186f6b6457e090600090a35050565b80516001600160a01b0381168114620007ec57600080fd5b6000806000806000806000806000806101408b8d0312156200088d57600080fd5b8a51995060208b0151985060408b0151975060608b0151965060808b0151955060a08b015163ffffffff81168114620008c557600080fd5b9450620008d560c08c0162000854565b9350620008e560e08c0162000854565b9250620008f66101008c0162000854565b9150620009076101208c0162000854565b90509295989b9194979a5092959850565b634e487b7160e01b600052602160045260246000fd5b634e487b7160e01b600052601160045260246000fd5b600063ffffffff838116908316818110156200096457620009646200092e565b039392505050565b600063ffffffff8083168181036200098857620009886200092e565b6001019392505050565b60805160a05160c05160e05161010051610120516101405161016051612a7862000a536000396000818161027a0152610d010152600081816104ee01526107fb01526000818161020c015261116e015260008181610416015261118f01526000818161061f01526108fb015260008181610562015281816115570152818161159901528181611cbd01528181611dc701528181611e09015261201d0152600081816105eb01526109a201526000818161072f0152611c3e0152612a786000f3fe6080604052600436106101ee5760003560e01c80638da5cb5b11610113578063e8295588116100ab578063f14fcbc81161006f578063f14fcbc814610751578063f178e47c14610764578063f2fde38b14610791578063fc0c546a146107b1578063fc7e9c6f146107d157600080fd5b8063e82955881461069e578063ebf0c717146106be578063ec732959146106d4578063eca73f6414610708578063ed33639f1461071d57600080fd5b80638da5cb5b146105845780638ea3099e14610599578063a18e8db2146105b9578063af640d0f146105d9578063c78096e41461060d578063caa02e0814610641578063caadea171461065e578063d28cebb814610680578063d91c98d31461068857600080fd5b806350f17d551161018657806350f17d55146103815780635184701d146103a55780635713fe4c146104045780636491ec6c14610438578063701fd0f1146104a7578063715018a6146104c75780637b47707a146104dc578063839df945146105105780638bca6d161461055057600080fd5b8063055d7491146101fa578063200d2ed2146102415780632b7ac3f314610268578063302bcc57146102a9578063414a37ba146102e25780634664611e1461030457806346d1d21a146103285780634bb278f3146103485780634ecf518b1461035f57600080fd5b366101f557005b600080fd5b34801561020657600080fd5b5061022e7f000000000000000000000000000000000000000000000000000000000000000081565b6040519081526020015b60405180910390f35b34801561024d57600080fd5b5060005461025b9060ff1681565b60405161023891906124a2565b34801561027457600080fd5b5061029c7f000000000000000000000000000000000000000000000000000000000000000081565b60405161023891906124ca565b3480156102b557600080fd5b506004546102cd90600160201b900463ffffffff1681565b60405163ffffffff9091168152602001610238565b3480156102ee57600080fd5b5061022e600080516020612a2383398151915281565b34801561031057600080fd5b506003546102cd90600160c01b900463ffffffff1681565b34801561033457600080fd5b5060095461029c906001600160a01b031681565b34801561035457600080fd5b5061035d6107ee565b005b34801561036b57600080fd5b506000546102cd90610100900463ffffffff1681565b34801561038d57600080fd5b506003546102cd90600160e01b900463ffffffff1681565b3480156103b157600080fd5b506103e56103c03660046124f0565b60076020526000908152604090205460ff81169061010090046001600160a01b031682565b6040805192151583526001600160a01b03909116602083015201610238565b34801561041057600080fd5b5061022e7f000000000000000000000000000000000000000000000000000000000000000081565b34801561044457600080fd5b506104816104533660046124f0565b60086020526000908152604090208054600182015460029092015460ff90911691906001600160a01b031683565b60408051931515845260208401929092526001600160a01b031690820152606001610238565b3480156104b357600080fd5b5061035d6104c2366004612514565b61089c565b3480156104d357600080fd5b5061035d610a1a565b3480156104e857600080fd5b5061022e7f000000000000000000000000000000000000000000000000000000000000000081565b34801561051c57600080fd5b5061054061052b366004612514565b60066020526000908152604090205460ff1681565b6040519015158152602001610238565b34801561055c57600080fd5b5061022e7f000000000000000000000000000000000000000000000000000000000000000081565b34801561059057600080fd5b5061029c610a2e565b3480156105a557600080fd5b5061022e6105b4366004612542565b610a44565b3480156105c557600080fd5b5061035d6105d4366004612577565b610c40565b3480156105e557600080fd5b5061022e7f000000000000000000000000000000000000000000000000000000000000000081565b34801561061957600080fd5b5061022e7f000000000000000000000000000000000000000000000000000000000000000081565b34801561064d57600080fd5b506004546102cd9063ffffffff1681565b34801561066a57600080fd5b50610540610679366004612514565b6002541490565b61035d61115e565b34801561069457600080fd5b5061022e60055481565b3480156106aa57600080fd5b5061022e6106b9366004612514565b611286565b3480156106ca57600080fd5b5061022e60025481565b3480156106e057600080fd5b5061022e7f2cf9e9b70ba26273d0d92524f1f242af2b129368526a6b0ab4ae5b3c7dd7065a81565b34801561071457600080fd5b5061022e6114d5565b34801561072957600080fd5b5061029c7f000000000000000000000000000000000000000000000000000000000000000081565b61035d61075f366004612514565b6115e3565b34801561077057600080fd5b5061022e61077f366004612514565b60016020526000908152604090205481565b34801561079d57600080fd5b5061035d6107ac3660046125dc565b611788565b3480156107bd57600080fd5b50600a5461029c906001600160a01b031681565b3480156107dd57600080fd5b506003546102cd9063ffffffff1681565b60026107f9816117fe565b7f0000000000000000000000000000000000000000000000000000000000000000600554610827919061260f565b43116108915760405162461bcd60e51b815260206004820152602e60248201527f4c6f74746572793a2066756e64206973206c6f636b696e672c2063616e206e6f60448201526d742066696e616c697a65206e6f7760901b60648201526084015b60405180910390fd5b61089961188c565b50565b60016108a7816117fe565b6000600554116108f95760405162461bcd60e51b815260206004820152601d60248201527f4c6f74746572793a206e6f2072616e646f6d697a696e6720626c6f636b0000006044820152606401610888565b7f00000000000000000000000000000000000000000000000000000000000000008260405160200161092d91815260200190565b60405160208183030381529060405280519060200120146109895760405162461bcd60e51b81526020600482015260166024820152754c6f74746572793a20696e76616c6964206e6f6e636560501b6044820152606401610888565b61099161191e565b600061099c836119b0565b604080517f000000000000000000000000000000000000000000000000000000000000000060208201529081018590526060810182905290915060800160408051601f1981840301815291905280516020909101206003805463ffffffff909216600160c01b0263ffffffff60c01b19909216919091179055505050565b610a226119cc565b610a2c6000611a2b565b565b600354600160201b90046001600160a01b031690565b6000600080516020612a238339815191528310610ab85760405162461bcd60e51b815260206004820152602c60248201527f4d65726b6c65547265653a205f6c6566742073686f756c6420626520696e736960448201526b1919481d1a1948199a595b1960a21b6064820152608401610888565b600080516020612a238339815191528210610b2b5760405162461bcd60e51b815260206004820152602d60248201527f4d65726b6c65547265653a205f72696768742073686f756c6420626520696e7360448201526c1a5919481d1a1948199a595b19609a1b6064820152608401610888565b604051633f1a118760e01b8152600481018490526000602482018190526044820181905284916001600160a01b03871690633f1a1187906064016040805180830381865afa158015610b81573d6000803e3d6000fd5b505050506040513d601f19601f82011682018060405250810190610ba59190612627565b9092509050600080516020612a23833981519152848308604051633f1a118760e01b81526004810182905260248101839052600060448201529092506001600160a01b03871690633f1a1187906064016040805180830381865afa158015610c11573d6000803e3d6000fd5b505050506040513d601f19601f82011682018060405250810190610c359190612627565b509695505050505050565b6002610c4b816117fe565b6002548614610c9c5760405162461bcd60e51b815260206004820152601a60248201527f4c6f74746572793a2077726f6e67206d65726b6c6520726f6f740000000000006044820152606401610888565b60035463ffffffff600160e01b90910481169086161115610cff5760405162461bcd60e51b815260206004820152601c60248201527f4c6f74746572793a20696e76616c6964205f646966666572656e6365000000006044820152606401610888565b7f00000000000000000000000000000000000000000000000000000000000000006001600160a01b03166334baeab9604051806040016040528085600060088110610d4c57610d4c612661565b6020020135815260200185600160088110610d6957610d69612661565b6020020135905260408051608081018252868201359181019182529081906060820188600360200201358152508152602001604051806040016040528088600460088110610db957610db9612661565b6020020135815260200188600560088110610dd657610dd6612661565b60200201359052905260408051808201909152808760066020020135815260200187600760088110610e0a57610e0a612661565b60200201358152506040518060a001604052808c60001c8152602001600360189054906101000a900463ffffffff1663ffffffff1681526020018b63ffffffff1681526020018a60001c8152602001896001600160a01b03168152506040518563ffffffff1660e01b8152600401610e8594939291906126a0565b602060405180830381865afa158015610ea2573d6000803e3d6000fd5b505050506040513d601f19601f82011682018060405250810190610ec69190612747565b610f0b5760405162461bcd60e51b81526020600482015260166024820152752637ba3a32b93c9d1034b73b30b634b210383937b7b360511b6044820152606401610888565b60035463ffffffff600160e01b909104811690861603610fbc5760005b60045463ffffffff9081169082161015610fb65763ffffffff8116600090815260086020526040902060010154859003610fa45760405162461bcd60e51b815260206004820152601f60248201527f4c6f74746572793a206e6f206e65656420746f20636c61696d207477696365006044820152606401610888565b80610fae81612769565b915050610f28565b50611047565b60005b60045463ffffffff908116908216101561101b5763ffffffff81166000908152600860205260408120805460ff19168155600181019190915560020180546001600160a01b03191690558061101381612769565b915050610fbf565b50600380546001600160e01b0316600160e01b63ffffffff8816021790556004805463ffffffff191690555b60408051606081018252600080825260208083018881526001600160a01b038881168587019081526004805463ffffffff908116875260089095529685209551865460ff1916901515178655915160018601559051600290940180546001600160a01b0319169490911693909317909255825490911691906110c883612769565b91906101000a81548163ffffffff021916908363ffffffff160217905550506004546110fc9060019063ffffffff1661278c565b63ffffffff16836001600160a01b03167fc0dbcf8f257657d16516c357aed907aa3f71a5a4b074bfb962c9d758ee840569878760405161114e92919063ffffffff929092168252602082015260400190565b60405180910390a3505050505050565b6000611169816117fe565b6111b37f00000000000000000000000000000000000000000000000000000000000000007f000000000000000000000000000000000000000000000000000000000000000061260f565b431161121e5760405162461bcd60e51b815260206004820152603460248201527f4c6f74746572793a2077616974696e6720666f7220636f6d6d697474696e672c6044820152732063616e206e6f7420676f206e657874206e6f7760601b6064820152608401610888565b600454600160201b900463ffffffff1661127a5760405162461bcd60e51b815260206004820152601b60248201527f4c6f74746572793a206e6f7420656e6f75676820706c617965727300000000006044820152606401610888565b43600555610899611a8a565b6000816000036112b757507f2cf9e9b70ba26273d0d92524f1f242af2b129368526a6b0ab4ae5b3c7dd7065a919050565b816001036112e657507f1635b2d36ff63121694af49a4d3c3cca8c740fcfe2aa33e7a4f6202e59fd4f44919050565b8160020361131557507f16393d132a31040fe66b041853502aad2deffb6fbaddbdbef588a2954282942b919050565b8160030361134457507f0a3ae4392887fb7944f5cec9d35f2543280c655dd770be15bc22c9dd29194cba919050565b8160040361137357507f24ff60aad4c2e0c6f767bd185a5a654b4d8d4177fc255d945e7f3376bc467700919050565b816005036113a257507f0759516e53eb36eb2ec242a0822d280b6d809e02af7da37313b41023c0b8a071919050565b816006036113d157507f07417447bde93ab35150909062b8e02f39df89d070c35cbf1b9c0cf40c11e703919050565b8160070361140057507f1bfd31be5498363e0675ab0b52903cb93d500ad5d2930dc503f846d2e240f711919050565b8160080361142f57507f15fb7c999bcc1c8961a584a78e4ff1c97037ae3ffbdfd8c1ef82e92e1d985422919050565b8160090361145e57507f28088429e37798c8f5a3f6ef6b26dac6c957974f30df1da1dfe110fd3358ac15919050565b81600a0361148d57507f116fa58935dd461ff4956795241840c9fe15a28a8dfbc59141b666c07060394f919050565b60405162461bcd60e51b815260206004820152601f60248201527f4d65726b6c65547265653a20696e646578206f7574206f6620626f756e6473006044820152606401610888565b600a546040516370a0823160e01b815260009182916001600160a01b03909116906370a082319061150a9030906004016124ca565b602060405180830381865afa158015611527573d6000803e3d6000fd5b505050506040513d601f19601f8201168201806040525081019061154b91906127b1565b600454909150611589907f000000000000000000000000000000000000000000000000000000000000000090600160201b900463ffffffff166127ca565b8111156115db576004546115cb907f000000000000000000000000000000000000000000000000000000000000000090600160201b900463ffffffff166127ca565b6115d590826127e9565b91505090565b600091505090565b60006115ee816117fe565b60008281526006602052604090205460ff16156116585760405162461bcd60e51b815260206004820152602260248201527f4c6f74746572793a2074686520636f6d6d69746d656e74206973206578736974604482015261195960f21b6064820152608401610888565b600061166383611b18565b6000848152600660209081526040808320805460ff1916600117905580518082018252838152338184019081526004805463ffffffff600160201b91829004811688526007909652939095209151825491516001600160a01b031661010002610100600160a81b0319911515919091166001600160a81b031990921691909117179055825493945090920490911690806116fc83612769565b91906101000a81548163ffffffff021916908363ffffffff16021790555050611723611cbb565b60045461173f90600190600160201b900463ffffffff1661278c565b6040805163ffffffff848116825260208201879052825193169233927f50eee0bc1a9a73ede19395375ae06afe417542ef13aba1720d146780d4e2321e928290030190a3505050565b6117906119cc565b6001600160a01b0381166117f55760405162461bcd60e51b815260206004820152602660248201527f4f776e61626c653a206e6577206f776e657220697320746865207a65726f206160448201526564647265737360d01b6064820152608401610888565b61089981611a2b565b8060038111156118105761181061248c565b60005460ff1660038111156118275761182761248c565b1460405160200161185b907f53746174757361626c653a20737461747573206973206e6f74207269676874008152601f0190565b604051602081830303815290604052906118885760405162461bcd60e51b81526004016108889190612800565b5050565b600260005460ff1660038111156118a5576118a561248c565b146119095760405162461bcd60e51b815260206004820152602e60248201527f4c6f74746572793a2063616e206f6e6c792066696e616c697a6520617420726560448201526d7665616c696e672073746174757360901b6064820152608401610888565b6000805460ff19166003179055610a2c611d44565b600160005460ff1660038111156119375761193761248c565b146119995760405162461bcd60e51b815260206004820152602c60248201527f4c6f74746572793a2063616e206f6e6c792072657665616c206174207072657060448201526b6172696e672073746174757360a01b6064820152608401610888565b6119a1611f66565b6000805460ff19166002179055565b6000806119bf83600554611f71565b63ffffffff169392505050565b336119d5610a2e565b6001600160a01b031614610a2c5760405162461bcd60e51b815260206004820181905260248201527f4f776e61626c653a2063616c6c6572206973206e6f7420746865206f776e65726044820152606401610888565b600380546001600160a01b03838116600160201b818102640100000000600160c01b031985161790945560405193909204169182907f8be0079c531659141344cd1fd0a4f28419497f9722a3daafe3b4186f6b6457e090600090a35050565b6000805460ff166003811115611aa257611aa261248c565b14611b035760405162461bcd60e51b815260206004820152602b60248201527f4c6f74746572793a2063616e206f6e6c7920707265706172652061742070656e60448201526a64696e672073746174757360a81b6064820152608401610888565b6000805460ff19166001179055610a2c611ff9565b60035460008054909163ffffffff90811691611b3c91610100909104166002612966565b63ffffffff168163ffffffff1603611bb45760405162461bcd60e51b815260206004820152603560248201527f4d65726b6c65547265653a20747265652069732066756c6c2e204e6f206d6f7260448201527419481b19585d995cc818d85b881899481859191959605a1b6064820152608401610888565b8083600080805b60005463ffffffff61010090910481169082161015611c8557611bdf600286612983565b63ffffffff16600003611c1d57839250611bfe8163ffffffff16611286565b63ffffffff821660009081526001602052604090208590559150611c39565b63ffffffff811660009081526001602052604090205492508391505b611c647f00000000000000000000000000000000000000000000000000000000000000008484610a44565b9350611c716002866129a6565b945080611c7d81612769565b915050611bbb565b506002839055611c968560016129c9565b6003805463ffffffff191663ffffffff92909216919091179055509295945050505050565b7f00000000000000000000000000000000000000000000000000000000000000003414610a2c5760405162461bcd60e51b815260206004820152603160248201527f43524f4c6f74746572793a2076616c75652073686f756c64206265206571756160448201527036103a37903232b737b6b4b730ba34b7b760791b6064820152608401610888565b600a546040516370a0823160e01b81526000916001600160a01b0316906370a0823190611d759030906004016124ca565b602060405180830381865afa158015611d92573d6000803e3d6000fd5b505050506040513d601f19601f82011682018060405250810190611db691906127b1565b6004549091506000908190611df9907f000000000000000000000000000000000000000000000000000000000000000090600160201b900463ffffffff166127ca565b831115611e4e57600454611e3b907f000000000000000000000000000000000000000000000000000000000000000090600160201b900463ffffffff166127ca565b9050611e4781846127e9565b9150611e51565b50815b600a5460405163db006a7560e01b8152600481018590526000916001600160a01b03169063db006a75906024016020604051808303816000875af1158015611e9d573d6000803e3d6000fd5b505050506040513d601f19601f82011682018060405250810190611ec191906127b1565b90508015611f0d5760405162461bcd60e51b815260206004820152601960248201527810d493d31bdd1d195c9e4e881c995919595b4819985a5b1959603a1b6044820152606401610888565b611f16826120ff565b611f1f836121d0565b611f27610a2e565b6001600160a01b03166108fc479081150290604051600060405180830381858888f19350505050158015611f5f573d6000803e3d6000fd5b5050505050565b610a2c600554612298565b6009546040516324cbbfc160e01b815263ffffffff600482015260248101849052604481018390526000916001600160a01b0316906324cbbfc190606401602060405180830381865afa158015611fcc573d6000803e3d6000fd5b505050506040513d601f19601f82011682018060405250810190611ff091906129f1565b90505b92915050565b61200460055461235f565b60045460009061204190600160201b900463ffffffff167f00000000000000000000000000000000000000000000000000000000000000006127ca565b9050804710156120935760405162461bcd60e51b815260206004820152601e60248201527f43524f4c6f74746572793a20696e73756666696369656e742066756e647300006044820152606401610888565b600a60009054906101000a90046001600160a01b03166001600160a01b0316631249c58b826040518263ffffffff1660e01b81526004016000604051808303818588803b1580156120e357600080fd5b505af11580156120f7573d6000803e3d6000fd5b505050505050565b60045460009061211c90600160201b900463ffffffff1683612a0e565b905060005b60045463ffffffff600160201b909104811690821610156121cb5763ffffffff811660009081526007602052604090205460ff16156121b95763ffffffff81166000908152600760205260408082208054600160ff19909116179081905590516101009091046001600160a01b0316916108fc851502918591818181858888f193505050501580156121b7573d6000803e3d6000fd5b505b806121c381612769565b915050612121565b505050565b806000036121db5750565b6004546000906121f19063ffffffff1683612a0e565b905060005b60045463ffffffff90811690821610156121cb5763ffffffff811660009081526008602052604081205460ff16151590036122865763ffffffff8116600090815260086020526040808220805460ff191660011781556002015490516001600160a01b039091169184156108fc02918591818181858888f19350505050158015612284573d6000803e3d6000fd5b505b8061229081612769565b9150506121f6565b6009546040516326f21bfb60e21b8152600481018390526001600160a01b0390911690639bc86fec90602401602060405180830381865afa1580156122e1573d6000803e3d6000fd5b505050506040513d601f19601f820116820180604052508101906123059190612747565b6108995760405162461bcd60e51b815260206004820152602560248201527f5769746e6574524e473a20626c6f636b2073686f756c642062652072616e646f6044820152641b5a5e995960da1b6064820152608401610888565b6009546040516326f21bfb60e21b8152600481018390526001600160a01b0390911690639bc86fec90602401602060405180830381865afa1580156123a8573d6000803e3d6000fd5b505050506040513d601f19601f820116820180604052508101906123cc9190612747565b610899576000600960009054906101000a90046001600160a01b03166001600160a01b031663699b328a346040518263ffffffff1660e01b815260040160206040518083038185885af1158015612427573d6000803e3d6000fd5b50505050506040513d601f19601f8201168201806040525081019061244c91906127b1565b90503481101561188857336108fc61246483346127e9565b6040518115909202916000818181858888f193505050501580156121cb573d6000803e3d6000fd5b634e487b7160e01b600052602160045260246000fd5b60208101600483106124c457634e487b7160e01b600052602160045260246000fd5b91905290565b6001600160a01b0391909116815260200190565b63ffffffff8116811461089957600080fd5b60006020828403121561250257600080fd5b813561250d816124de565b9392505050565b60006020828403121561252657600080fd5b5035919050565b6001600160a01b038116811461089957600080fd5b60008060006060848603121561255757600080fd5b83356125628161252d565b95602085013595506040909401359392505050565b600080600080600061018080878903121561259157600080fd5b8635955060208701356125a3816124de565b94506040870135935060608701356125ba8161252d565b92508681018810156125cb57600080fd5b506080860190509295509295909350565b6000602082840312156125ee57600080fd5b813561250d8161252d565b634e487b7160e01b600052601160045260246000fd5b60008219821115612622576126226125f9565b500190565b6000806040838503121561263a57600080fd5b505080516020909101519092909150565b634e487b7160e01b600052601260045260246000fd5b634e487b7160e01b600052603260045260246000fd5b8060005b600281101561269a57815184526020938401939091019060010161267b565b50505050565b6101a081016126af8287612677565b60408083018660005b60028082106126c75750612702565b82518460005b838110156126eb5782518252602092830192909101906001016126cd565b5050509284019250602091909101906001016126b8565b5050505061271360c0830185612677565b61010082018360005b600581101561273b57815183526020928301929091019060010161271c565b50505095945050505050565b60006020828403121561275957600080fd5b8151801515811461250d57600080fd5b600063ffffffff808316818103612782576127826125f9565b6001019392505050565b600063ffffffff838116908316818110156127a9576127a96125f9565b039392505050565b6000602082840312156127c357600080fd5b5051919050565b60008160001904831182151516156127e4576127e46125f9565b500290565b6000828210156127fb576127fb6125f9565b500390565b600060208083528351808285015260005b8181101561282d57858101830151858201604001528201612811565b8181111561283f576000604083870101525b50601f01601f1916929092016040019392505050565b600181815b80851115612892578163ffffffff04821115612878576128786125f9565b8085161561288557918102915b93841c939080029061285a565b509250929050565b6000826128a957506001611ff3565b816128b657506000611ff3565b81600181146128cc57600281146128d657612907565b6001915050611ff3565b60ff8411156128e7576128e76125f9565b6001841b915063ffffffff821115612901576129016125f9565b50611ff3565b5060208310610133831016604e8410600b841016171561293e575081810a63ffffffff811115612939576129396125f9565b611ff3565b6129488383612855565b8063ffffffff0482111561295e5761295e6125f9565b029392505050565b600063ffffffff61297b81851682851661289a565b949350505050565b600063ffffffff8084168061299a5761299a61264b565b92169190910692915050565b600063ffffffff808416806129bd576129bd61264b565b92169190910492915050565b600063ffffffff8083168185168083038211156129e8576129e86125f9565b01949350505050565b600060208284031215612a0357600080fd5b815161250d816124de565b600082612a1d57612a1d61264b565b50049056fe30644e72e131a029b85045b68181585d2833e84879b9709143e1f593f0000001a2646970667358221220e9d1dffe8d2d46c47de2199af87cfa750b146c3b4571d8a5cc86a8696c6d788664736f6c634300080d00334c6f74746572793a205f77616974696e67426c6f636b732073686f756c642062a26469706673582212206c9b32eec26a2491b907d9d804493de2c4919edefb6d173955aadb581f3fc2af64736f6c634300080d0033",
  "devdoc": {
    "kind": "dev",
    "methods": {
      "owner()": {
        "details": "Returns the address of the current owner."
      },
      "renounceOwnership()": {
        "details": "Leaves the contract without owner. It will not be possible to call `onlyOwner` functions anymore. Can only be called by the current owner. NOTE: Renouncing ownership will leave the contract without an owner, thereby removing any functionality that is only available to the owner."
      },
      "transferOwnership(address)": {
        "details": "Transfers ownership of the contract to a new account (`newOwner`). Can only be called by the current owner."
      }
    },
    "version": 1
  },
  "userdoc": {
    "kind": "user",
    "methods": {},
    "version": 1
  },
  "storageLayout": {
    "storage": [
      {
        "astId": 7,
        "contract": "contracts/CROLotteryFactory.sol:CROLotteryFactory",
        "label": "_owner",
        "offset": 0,
        "slot": "0",
        "type": "t_address"
      },
      {
        "astId": 1197,
        "contract": "contracts/CROLotteryFactory.sol:CROLotteryFactory",
        "label": "counter",
        "offset": 0,
        "slot": "1",
        "type": "t_uint256"
      },
      {
        "astId": 1199,
        "contract": "contracts/CROLotteryFactory.sol:CROLotteryFactory",
        "label": "levels",
        "offset": 0,
        "slot": "2",
        "type": "t_uint32"
      },
      {
        "astId": 1201,
        "contract": "contracts/CROLotteryFactory.sol:CROLotteryFactory",
        "label": "hasher",
        "offset": 4,
        "slot": "2",
        "type": "t_address"
      },
      {
        "astId": 1203,
        "contract": "contracts/CROLotteryFactory.sol:CROLotteryFactory",
        "label": "verifier",
        "offset": 0,
        "slot": "3",
        "type": "t_address"
      },
      {
        "astId": 1205,
        "contract": "contracts/CROLotteryFactory.sol:CROLotteryFactory",
        "label": "witnet",
        "offset": 0,
        "slot": "4",
        "type": "t_address"
      },
      {
        "astId": 1207,
        "contract": "contracts/CROLotteryFactory.sol:CROLotteryFactory",
        "label": "tCRO",
        "offset": 0,
        "slot": "5",
        "type": "t_address"
      },
      {
        "astId": 1211,
        "contract": "contracts/CROLotteryFactory.sol:CROLotteryFactory",
        "label": "lotteries",
        "offset": 0,
        "slot": "6",
        "type": "t_array(t_contract(Lottery)1984)dyn_storage"
      }
    ],
    "types": {
      "t_address": {
        "encoding": "inplace",
        "label": "address",
        "numberOfBytes": "20"
      },
      "t_array(t_contract(Lottery)1984)dyn_storage": {
        "base": "t_contract(Lottery)1984",
        "encoding": "dynamic_array",
        "label": "contract Lottery[]",
        "numberOfBytes": "32"
      },
      "t_contract(Lottery)1984": {
        "encoding": "inplace",
        "label": "contract Lottery",
        "numberOfBytes": "20"
      },
      "t_uint256": {
        "encoding": "inplace",
        "label": "uint256",
        "numberOfBytes": "32"
      },
      "t_uint32": {
        "encoding": "inplace",
        "label": "uint32",
        "numberOfBytes": "4"
      }
    }
  }
}