{
  "address": "0x37dbeb913caeb6a911f85fa1f63f6147cf161326",
  "abi": [
    {
      "inputs": [
        {
          "internalType": "uint256[2]",
          "name": "a",
          "type": "uint256[2]"
        },
        {
          "internalType": "uint256[2][2]",
          "name": "b",
          "type": "uint256[2][2]"
        },
        {
          "internalType": "uint256[2]",
          "name": "c",
          "type": "uint256[2]"
        },
        {
          "internalType": "uint256[5]",
          "name": "input",
          "type": "uint256[5]"
        }
      ],
      "name": "verifyProof",
      "outputs": [
        {
          "internalType": "bool",
          "name": "r",
          "type": "bool"
        }
      ],
      "stateMutability": "view",
      "type": "function"
    }
  ],
  "transactionHash": "0xdd2eea750a84dad633d3d1b4b00182ba1d575a6df0efb734c8886595785621a8",
  "args": [],
  "numDeployments": 1,
  "solcInputHash": "d1dd179a3c827274be232740447a2c24",
  "bytecode": "0x608060405234801561001057600080fd5b506112f5806100206000396000f3fe608060405234801561001057600080fd5b506004361061002b5760003560e01c806334baeab914610030575b600080fd5b61004361003e36600461112c565b610057565b604051901515815260200160405180910390f35b6000610061610f4f565b604080518082018252875181526020808901518183015290835281516080810183528751518184019081528851830151606083015281528251808401845288830180515182525183015181840152818301528382015281518083018352865181528682015181830152838301528151600580825260c082019093526000929091820160a08036833701905050905060005b60058110156101415784816005811061010d5761010d61120a565b60200201518282815181106101245761012461120a565b60209081029190910101528061013981611236565b9150506100f2565b5061014c818361016d565b60000361015e57600192505050610165565b6000925050505b949350505050565b60007f30644e72e131a029b85045b68181585d2833e84879b9709143e1f593f000000181610199610364565b9050806080015151855160016101af919061124f565b146101f65760405162461bcd60e51b81526020600482015260126024820152711d995c9a599a595c8b5898590b5a5b9c1d5d60721b60448201526064015b60405180910390fd5b604080518082019091526000808252602082018190525b86518110156102e757838782815181106102295761022961120a565b60200260200101511061027e5760405162461bcd60e51b815260206004820152601f60248201527f76657269666965722d6774652d736e61726b2d7363616c61722d6669656c640060448201526064016101ed565b6102d3826102ce8560800151846001610297919061124f565b815181106102a7576102a761120a565b60200260200101518a85815181106102c1576102c161120a565b60200260200101516108ce565b610958565b9150806102df81611236565b91505061020d565b506103108183608001516000815181106103035761030361120a565b6020026020010151610958565b905061034661032286600001516109e5565b8660200151846000015185602001518587604001518b604001518960600151610a78565b610356576001935050505061035e565b600093505050505b92915050565b61036c610f81565b6040805180820182527f2d4d9aa7e302d9df41749d5507949d05dbea33fbb16c643b22f599a2be6df2e281527f14bedd503c37ceb061d8ec60209fe345ce89830a19230301f076caff004d19266020808301919091529083528151608080820184527f0967032fcbf776d1afc985f88877f182d38480a653f2decaa9794cbc3bf3060c8285019081527f0e187847ad4c798374d0d6732bf501847dd68bc0e071241e0213bc7fc13db7ab606080850191909152908352845180860186527f304cfbd1e08a704a99f5e847d93f8c3caafddec46b7a0d379da69a4d112346a781527f1739c1b1a457a8c7313123d24d2f9192f896b7c63eea05a9d57f06547ad0cec8818601528385015285840192909252835180820185527f198e9393920d483a7260bfb731fb5d25f1aa493335a9e71297e485b7aef312c28186019081527f1800deef121f1e76426a00665e5c4479674322d4f75edadd46debd5cd992f6ed828501528152845180860186527f090689d0585ff075ec9e99ad690c3395bc4b313370b38ef355acdadcd122975b81527f12c85ea5db8c6deb4aab71808dcb408fe3d1e7690c43d37b4ce6cc0166fa7daa818601528185015285850152835190810184527f111a63b896ca2e8f73a9c5e9276597133704743bbc8a3f79349e2608882800458185019081527f15a98e780cbac9fda75f52e327a99c3a6039fb1b98e5d99b5c80684e8663c6d9828401528152835180850185527f25730d91da149b762ae4b0502da141eea51b0b63deccd783425db6a08ca568ca81527f28e27f30689bd5be1665dfa3155a56dbcb78dc02fa69d6388b01c111a766c9798185015281840152908401528151600680825260e08201909352919082015b6105ef610fc8565b8152602001906001900390816105e757505060808201908152604080518082019091527f0f0dae09c8fb5e4d3f484bdcf68901a4c2b355f5e2501d2ab8ffb21b801aa86e81527f1a55a437a81e26f448f0160dc5b3fd0d59dc994b32f61348356b1299883b68f660208201529051805160009061066e5761066e61120a565b602002602001018190525060405180604001604052807f1f74b81b2ecbec4a722ef168e73e990f4ca4bb8814079422f41282aa3c10253e81526020017f1ef5c2c251d63fe3bb2c0324d373fc3d670e9d07542c8a6fac63f71ebcad1ec081525081608001516001815181106106e5576106e561120a565b602002602001018190525060405180604001604052807f0afac6dce78fe8c16795e5082fe73b1966e5f358f4bf3be93312468b0c0e4cf181526020017f1e615af1fb05d56b51b5e8058a83059a4080e7a1988906b089fdb9f18e4fa19e815250816080015160028151811061075c5761075c61120a565b602002602001018190525060405180604001604052807f1a7070487cf8fd941ce8c39b0a0cbce895ef5d562ab80f817f0dd24a5d25a06d81526020017f0191cd6141e90acf72c932863fd3852594a57d1aac44db882493ebe10892ab8481525081608001516003815181106107d3576107d361120a565b602002602001018190525060405180604001604052807f261b69820452e5546b2dfba1bde28d7e5d24845b10a647bf5547f87ec22ca06f81526020017f2e6eb0c31ee2558431c0eb16f85ca71f9c0b0bd0411c8add8a77b8ab813ef7c4815250816080015160048151811061084a5761084a61120a565b602002602001018190525060405180604001604052807e6dcbfa4e0dc9f730ecffdbcd81f0e6c1682c6647ceabdb1c4c0924ca97a2b881526020017f25ddb87431fbeff87fc8c94f8b626839a2f252ae9f1c1cbfd83427a9049bd8df81525081608001516005815181106108c0576108c061120a565b602002602001018190525090565b6108d6610fc8565b6108de610fe2565b835181526020808501519082015260408101839052600060608360808460076107d05a03fa9050808061090d57fe5b50806109505760405162461bcd60e51b81526020600482015260126024820152711c185a5c9a5b99cb5b5d5b0b59985a5b195960721b60448201526064016101ed565b505092915050565b610960610fc8565b610968611000565b8351815260208085015181830152835160408301528301516060808301919091526000908360c08460066107d05a03fa905080806109a257fe5b50806109505760405162461bcd60e51b81526020600482015260126024820152711c185a5c9a5b99cb5859190b59985a5b195960721b60448201526064016101ed565b6109ed610fc8565b81517f30644e72e131a029b85045b68181585d97816a916871ca8d3c208c16d87cfd4790158015610a2057506020830151155b15610a405750506040805180820190915260008082526020820152919050565b604051806040016040528084600001518152602001828560200151610a659190611267565b610a6f9084611289565b90529392505050565b60408051600480825260a08201909252600091829190816020015b610a9b610fc8565b815260200190600190039081610a9357505060408051600480825260a0820190925291925060009190602082015b610ad161101e565b815260200190600190039081610ac95790505090508a82600081518110610afa57610afa61120a565b60200260200101819052508882600181518110610b1957610b1961120a565b60200260200101819052508682600281518110610b3857610b3861120a565b60200260200101819052508482600381518110610b5757610b5761120a565b60200260200101819052508981600081518110610b7657610b7661120a565b60200260200101819052508781600181518110610b9557610b9561120a565b60200260200101819052508581600281518110610bb457610bb461120a565b60200260200101819052508381600381518110610bd357610bd361120a565b6020026020010181905250610be88282610bf7565b9b9a5050505050505050505050565b60008151835114610c435760405162461bcd60e51b81526020600482015260166024820152751c185a5c9a5b99cb5b195b99dd1a1ccb59985a5b195960521b60448201526064016101ed565b82516000610c528260066112a0565b905060008167ffffffffffffffff811115610c6f57610c6f61107a565b604051908082528060200260200182016040528015610c98578160200160208202803683370190505b50905060005b83811015610ed357868181518110610cb857610cb861120a565b60200260200101516000015182826006610cd291906112a0565b610cdd90600061124f565b81518110610ced57610ced61120a565b602002602001018181525050868181518110610d0b57610d0b61120a565b60200260200101516020015182826006610d2591906112a0565b610d3090600161124f565b81518110610d4057610d4061120a565b602002602001018181525050858181518110610d5e57610d5e61120a565b6020908102919091010151515182610d778360066112a0565b610d8290600261124f565b81518110610d9257610d9261120a565b602002602001018181525050858181518110610db057610db061120a565b60209081029190910181015151015182610dcb8360066112a0565b610dd690600361124f565b81518110610de657610de661120a565b602002602001018181525050858181518110610e0457610e0461120a565b602002602001015160200151600060028110610e2257610e2261120a565b602002015182610e338360066112a0565b610e3e90600461124f565b81518110610e4e57610e4e61120a565b602002602001018181525050858181518110610e6c57610e6c61120a565b602002602001015160200151600160028110610e8a57610e8a61120a565b602002015182610e9b8360066112a0565b610ea690600561124f565b81518110610eb657610eb661120a565b602090810291909101015280610ecb81611236565b915050610c9e565b50610edc61103e565b6000602082602086026020860160086107d05a03fa90508080610efb57fe5b5080610f415760405162461bcd60e51b81526020600482015260156024820152741c185a5c9a5b99cb5bdc18dbd9194b59985a5b1959605a1b60448201526064016101ed565b505115159695505050505050565b6040518060600160405280610f62610fc8565b8152602001610f6f61101e565b8152602001610f7c610fc8565b905290565b6040518060a00160405280610f94610fc8565b8152602001610fa161101e565b8152602001610fae61101e565b8152602001610fbb61101e565b8152602001606081525090565b604051806040016040528060008152602001600081525090565b60405180606001604052806003906020820280368337509192915050565b60405180608001604052806004906020820280368337509192915050565b604051806040016040528061103161105c565b8152602001610f7c61105c565b60405180602001604052806001906020820280368337509192915050565b60405180604001604052806002906020820280368337509192915050565b634e487b7160e01b600052604160045260246000fd5b6040805190810167ffffffffffffffff811182821017156110b3576110b361107a565b60405290565b60405160a0810167ffffffffffffffff811182821017156110b3576110b361107a565b600082601f8301126110ed57600080fd5b6110f5611090565b80604084018581111561110757600080fd5b845b81811015611121578035845260209384019301611109565b509095945050505050565b6000806000806101a080868803121561114457600080fd5b61114e87876110dc565b9450604087605f88011261116157600080fd5b611169611090565b8060c089018a81111561117b57600080fd5b838a015b818110156111a0576111918c826110dc565b8452602090930192840161117f565b508197506111ae8b826110dc565b9650505050508661011f8701126111c457600080fd5b6111cc6110b9565b9086019080888311156111de57600080fd5b61010088015b838110156111fc5780358352602092830192016111e4565b509598949750929550505050565b634e487b7160e01b600052603260045260246000fd5b634e487b7160e01b600052601160045260246000fd5b60006001820161124857611248611220565b5060010190565b6000821982111561126257611262611220565b500190565b60008261128457634e487b7160e01b600052601260045260246000fd5b500690565b60008282101561129b5761129b611220565b500390565b60008160001904831182151516156112ba576112ba611220565b50029056fea2646970667358221220519dde7706216535a056c05c2b63320d99229b29fa0a1fd6d67d6c609dfa65ca64736f6c634300080d0033",
  "devdoc": {
    "kind": "dev",
    "methods": {
      "verifyProof(uint256[2],uint256[2][2],uint256[2],uint256[5])": {
        "returns": {
          "r": " bool true if proof is valid"
        }
      }
    },
    "version": 1
  },
  "userdoc": {
    "kind": "user",
    "methods": {},
    "version": 1
  },
  "storageLayout": {
    "storage": [],
    "types": null
  }
}